:020000040000FA
:1000000001288316031788018901031383168501CC
:100010008601870188018901831203138501860106
:1000200087018801890103138316880189018312DE
:100030000910091508143B2009110530A000891486
:10004000332089103320A00B1F280810081509142D
:100050003B2008110530A00088143320881033207D
:10006000A00B2C2818280730E4003130E500F730C9
:10007000F70054200800D330E400D330E5006030AE
:10008000E00054200000000000000000E00B4228C7
:1000900008006208E3000000000000000000E30B1D
:1000A0004B28E10B492808006608E7006508E800CE
:1000B0000000000000000000E80B5828E70B56285D
:0600C000E40B54280800C7
:02400E00E423A9
:02401000FF3F70
:00000001FF
