:020000040000FA
:1000000001288316031788018901031383168501CC
:100010008601870188018901831203138501860106
:100020008701880189010313831601308900880143
:100030008312F03088002620880E1B280330E4004D
:100040002F30E500193099003E2008007530E1009E
:10005000F330E20033200800000000000000000040
:10006000E00B2C2808006208E300000000000000FC
:100070000000E30B3528E10B332808006608E70091
:100080006508E8000000000000000000E80B4228BE
:0A009000E70B4028E40B3E280800AF
:02400E00E423A9
:02401000FF3F70
:00000001FF
