:020000040000FA
:1000000001288316031788018901031383168501CC
:100010008601870188018901831203138501860106
:1000200087018801890103138316860187018312E2
:100030008709A00120083820860020082F2087008B
:100040000130E4000230E5007330F3005320FF304C
:100050008700A00A08302006031D1A2819288207E5
:10006000FE34FD34FB34F734EF34DF34BF347F34F7
:1000700082070034243424342434813442343C3420
:1000800000340000000000000000E00B41280800E0
:100090006208E3000000000000000000E30B4A28B3
:1000A000E10B482808006608E7006508E800000042
:1000B000000000000000E80B5728E70B5528E40B70
:0400C00053280800B9
:02400E00E423A9
:02401000FF3F70
:00000001FF
