:020000040000FA
:1000000001288316031788018901031383168501CC
:100010008601870188018901831203138501860106
:10002000870188018901031383168801D630870070
:10003000940194131413141083129401941614163B
:10004000141094101411941107140530E400563064
:10005000E5006330E300492007100608930083168B
:10006000141C302883121308880007142528000068
:10007000000000000000E00B372808006208E300E1
:100080000000000000000000E30B4028E10B3E28C8
:1000900008006608E7006508E800000000000000AE
:1000A0000000E80B4D28E70B4B28E40B492808001B
:02400E00E423A9
:02401000FF3F70
:00000001FF
