:020000040000FA
:1000000001288316031788018901031383168501CC
:100010008601870188018901831203138501860106
:1000200087018801890103138316880186018312E1
:10003000860903100814080986004F30E4000330D5
:10004000E500FD30FD003A20880D031C1B2819280F
:100050000000000000000000E00B282808006208F3
:10006000E3000000000000000000E30B3128E10B7A
:100070002F2808006608E7006508E8000000000077
:1000800000000000E80B3E28E70B3C28E40B3A2870
:02009000080066
:02400E00E423A9
:02401000FF3F70
:00000001FF
