:020000040000FA
:100000002328820745344C3420344E3455344D3443
:10001000453452344F3420342034203420342034BA
:1000200020342034820741344C3445344134543434
:100030004F34523449344F3420344534533420340F
:1000400020343A34293483160317880189010313B5
:1000500083168501860187018801890183120313B4
:1000600085018601870188018901031383168601B2
:1000700083127B200630A420D2204630A420DC202E
:1000800040287508E0007608E1007708E20078086B
:10009000E3007808E4007A08E5007B08E6007C08C5
:1000A000E7007D08E80072088A00710E8300F00EF8
:1000B000700E09000000000000000000E00B5A284C
:1000C00008006208E3000000000000000000E30BED
:1000D0006328E10B612808006608E7006508E8006E
:1000E0000000000000000000E80B7028E70B6E28FD
:1000F000E40B6C2808003D30E100E830E2006120AC
:10010000BC20BC20BC2002308600C5208C208E2064
:1001100090209220942008002830B2280830B2287D
:100120000130B2280630B2280C30B2280E30B22886
:100130000F30B2280230B2281C30B2281830B22852
:100140001430B2281030B2288038B228AA002A0E03
:100150000F3986000616C5202A080F3986000616B4
:10016000C5200800AA002A0E0F398600C5202A08DB
:100170000F398600C520080003308600C5200430F2
:10018000E1009C30E20061200800861600000000BB
:1001900000000000000086122330E1000830E20079
:1001A00061200800A00120080120A620A00A10302C
:1001B0002006031DD3280800A00120081220A62035
:0C01C000A00A10302006031DDD280800F6
:02400E00E423A9
:02401000FF3F70
:00000001FF
