:020000040000FA
:02000000522884
:08000800F000030EF10083017A
:100010000A08F2006008F5006108F6006108F600C1
:100020006208F7006308F8006408F9006508FA0040
:100030006608FB006708FC006808FD00AF2882071F
:100040003F3406345B344F3466347D3407347F34B8
:100050006F3477347C3439345E34793471348207C8
:1000600082072034203420342034563469343A3422
:1000700020342034203420342034203420346D3493
:10008000563482075434453443343A3420342034CF
:1000900054343A3420342034203420342E34203464
:1000A000DF34433483160317880189010313831651
:1000B0008501860187018801890183120313850167
:1000C000860187018801890103138316F0308600B9
:1000D0008701880105108510FF30950083160317EE
:1000E000A83088000313831610309F008312D53088
:1000F0009F00E721003010223E224030102248228B
:10010000831655308100FF3096008312A80183309A
:1001100081003E30A30006080B118B160B108B15C7
:100120000B178B17A101A0013C30A20020081F2053
:10013000880005149D21051021081F2088008514C2
:100140009D218510A20B9628A00A09302006031DC8
:100150009428A10A09302106031D932892280B1D1B
:100160002C29A30B28299F143E30A300A80A280895
:10017000B0007421003010228E219F18BD28DD3080
:100180009F001E08B0007421073010228E218316B4
:100190001E088312B10003013106031DD62830303A
:1001A00012222E30122230301222F2284030310634
:1001B000031DE128323012222E3012223530122255
:1001C000F22880303106031DEC28353012222E3003
:1001D000122230301222F228373012222E30122210
:1001E000353012229F149F18F328D5309F001E0827
:1001F000B0007421483010228E2183161E0883120D
:10020000B10003013106031D0C292E3012223030BB
:10021000122230301222282940303106031D1729BE
:100220002E3012223230122235301222282980300C
:100230003106031D22292E30122235301222303091
:10024000122228292E301222373012223530122263
:10025000833081000B115A29831285019521F030DA
:100260000605AE0083160F308600811383128601C7
:10027000F0300605AE07AF012F08A3212E060319A3
:100280004829AF0A10302F06031D3C291030AF005B
:100290000000443010222F08B421122206080B104F
:1002A0000B1C502995218316F03086008113831290
:1002B00006080B1000007508E0007608E1007708DA
:1002C000E2007808E3007808E4007A08E5007B089B
:1002D000E6007C08E7007D08E80072088A00710EDD
:1002E0008300F00E700E0900A501A601A70164307D
:1002F000B002031C7D29A70A77296430B0070A30B1
:10030000B002031C8529A60A7F290A30B0073008ED
:10031000A5003030A507A607A70708002708122266
:10032000260812222508122208000330E4002F308C
:10033000E50019309900D82108000630E100B530F9
:10034000E200CD2108008207EE34DE34BE347E3474
:10035000ED34DD34BD347D34EB34DB34BB347B34FD
:10036000E734D734B7347734820730343134323419
:100370003334343435343634373438343934413422
:1003800042344334443445344634403400000000A1
:1003900000000000E00BC62908006208E30000002E
:1003A000000000000000E30BCF29E10BCD2908007D
:1003B0006608E7006508E800000000000000000093
:1003C000E80BDC29E70BDA29E40BD82908003D30DB
:1003D000E100E830E200CD21282228222822023044
:1003E00087003122F821FA21FC21FE210022080099
:1003F00028301E2A08301E2A01301E2A06301E2AE6
:100400000C301E2A0E301E2A0F301E2A02301E2AE1
:100410001C301E2A18301E2A14301E2A10301E2AA4
:1004200080381E2AAA002A0E0F39870007163122AB
:100430002A080F398700071631220800AA002A0E61
:100440000F39870031222A080F398700312208002E
:100450000330870031220430E1009C30E200CD21DE
:10046000080087160000000000000000000087124E
:100470002330E1000830E200CD210800A00120086F
:1004800030201222A00A10302006031D3F2A080047
:10049000A001200841201222A00A10302006031DCE
:0404A000492A0800DD
:02400E00E423A9
:02401000FF3F70
:00000001FF
