:020000040000FA
:1000000001288316031788018901031383168501CC
:100010008601870188018901831203138501860106
:1000200087018801890103138316860183126C20DE
:1000300003309520A001200830209720A00A10301E
:100040002006031D1B28403095201030A0002008FA
:1000500030209720A00A20302006031D27282F28B3
:10006000820745344E34533441344D3442344C3499
:10007000413444344F3452342034503441345234B7
:10008000413448344F344C3441345F344D3455346A
:100090004E3444344F340000000000000000E00BF8
:1000A0004B2808006208E300000000000000000088
:1000B000E30B5428E10B522808006608E7006508A6
:1000C000E8000000000000000000E80B6128E70BDA
:1000D0005F28E40B5D2808003D30E100E830E200D5
:1000E0005220AD20AD20AD2002308600B6207D200C
:1000F0007F2081208320852008002830A328083015
:10010000A3280130A3280630A3280C30A3280E30E2
:10011000A3280F30A3280230A3281C30A3281830AE
:10012000A3281430A3281030A3288038A328AA00BD
:100130002A0E0F3986000616B6202A080F398600C7
:100140000616B6200800AA002A0E0F398600B6202F
:100150002A080F398600B620080003308600B62032
:100160000430E1009C30E2005220080086160000B6
:10017000000000000000000086122330E10008307B
:06018000E200522008001D
:02400E00E423A9
:02401000FF3F70
:00000001FF
