:020000040000FA
:1000000001288316031788018901031383168501CC
:100010008601870188018901831203138501860106
:100020008701880189010313831688018712071647
:100030008711071094019413141314108312940160
:100040009416141614109410141194110714071018
:10005000013055200030552007145D200710063070
:10006000552007140530A0002030A10007100230F1
:100070005520030155200301552020085520A00AD2
:10008000A10B3D2807145D202030A100071003308C
:100090005520030155200301552055205B20880081
:1000A0006320A10B4D280714442893008316141CC9
:1000B000572883120800130808000430E1009C3020
:1000C000E200712008000330E400EA30E500CB30A4
:1000D000CB007C200000000000000000E00B6A283C
:1000E00008006208E3000000000000000000E30BCD
:1000F0007328E10B712808006608E7006508E8002E
:100100000000000000000000E80B8028E70B7E28BC
:06011000E40B7C2808004E
:02400E00E423A9
:02401000FF3F70
:00000001FF
