:020000040000FA
:02000000422894
:08000800F000030EF10083017A
:100010000A08F2006008F5006108F6006108F600C1
:100020006208F7006308F8006408F9006508FA0040
:100030006608FB006708FC006808FD006828820766
:10004000820745344C3420344E3455344D344534D5
:1000500052344F342034203420342034203420349F
:100060002034820741344C344534413454344F34C5
:10007000523449344F3420344534533420342034FE
:100080002034203483160317880189010313831653
:100090008501860187018801890183120313850187
:1000A00086018701880189010313831686010113E4
:1000B0008B100B168B178312D820003001212F21B3
:1000C000403001213921831686098312A10A66284E
:1000D00006186828AF20061C6B28AF20A501A601D2
:1000E000A7016430A102031C7728A70A7128643095
:1000F000A1070A30A102031C7F28A60A79280A302A
:10010000A1072108A5008316860983123030A507B0
:10011000A607A7074D300121270803212608032140
:10012000250803218316860983128B107508E000C9
:100130007608E1007708E2007808E3007808E40038
:100140007A08E5007B08E6007C08E7007D08E80007
:1001500072088A00710E8300F00E700E09000330E1
:10016000E4002F30E50019309900C9200800000094
:10017000000000000000E00BB72808006208E30060
:100180000000000000000000E30BC028E10BBE28C7
:1001900008006608E7006508E800000000000000AD
:1001A0000000E80BCD28E70BCB28E40BC92808009A
:1001B0003D30E100E830E200BE201921192119216B
:1001C000023086002221E920EB20ED20EF20F120F3
:1001D000080028300F2908300F2901300F29063078
:1001E0000F290C300F290E300F290F300F29023044
:1001F0000F291C300F2918300F2914300F29103007
:100200000F2980380F29AA002A0E0F3986000616FA
:1002100022212A080F398600061622210800AA008A
:100220002A0E0F39860022212A080F398600222142
:1002300008000330860022210430E1009C30E200F7
:10024000BE2008008616000000000000000000002C
:1002500086122330E1000830E200BE200800A00131
:10026000200820200321A00A10302006031D302979
:100270000800A001200831200321A00A1030200628
:06028000031D3A290800ED
:02400E00E423A9
:02401000FF3F70
:00000001FF
