:020000040000FA
:1000000001288316031788018901031383168501CC
:100010008601870188018901831203138501860106
:1000200087018801890103138316860183122F201B
:10003000A001200885205920A00A10302006031DA9
:100040001928403057201030A00020088520592062
:10005000A00A20302006031D2528472019283D30FE
:10006000E100E830E200AD206F206F206F20023009
:10007000860078203F20412043204520080028307A
:1000800065280830652801306528063065280C3061
:1000900065280E3065280F306528023065281C3031
:1000A0006528183065281430652810306528803898
:1000B0006528AA002A0E0F398600061678202A081D
:1000C0000F398600061678200800AA002A0E0F397C
:1000D000860078202A080F3986007820080003302F
:1000E000860078200430E1009C30E200AD2008005A
:1000F0008616000000000000000000008612233079
:10010000E1000830E200AD200800820745344E349B
:10011000533441344D3442344C34413444344F34FC
:100120005234203450344134523441345034493400
:100130004334313436344634383438343734203468
:1001400020342034203420343A3429340000000094
:1001500000000000E00BA62808006208E300000091
:10016000000000000000E30BAF28E10BAD28080001
:100170006608E7006508E8000000000000000000D5
:0E018000E80BBC28E70BBA28E40BB8280800EF
:02400E00E423A9
:02401000FF3F70
:00000001FF
