:020000040000FA
:02000000522884
:08000800F000030EF10083017A
:100010000A08F2006008F5006108F6006108F600C1
:100020006208F7006308F8006408F9006508FA0040
:100030006608FB006708FC006808FD009D28820731
:100040003F3406345B344F3466347D3407347F34B8
:100050006F3477347C3439345E34793471348207C8
:10006000820745344C3420344E3455344D344534B5
:1000700052344F342034203420342034203420347F
:100080002034820741344C344534413454344F34A5
:10009000523449344F3420344534533420342034DE
:1000A0002034203483160317880189010313831633
:1000B0008501860187018801890183120313850167
:1000C000860187018801890103138316860188014F
:1000D000051085108312352100305E218C214030BF
:1000E0005E21962183168609F03081008312063046
:1000F00081000530A3000B118B168B100B168B178C
:10010000A101A0013C30A20020081F208800051496
:100110000E21051021081F20880085140E2185104E
:10012000A20B8428A00A09302006031D8228A10AF8
:1001300009302106031D8128802885010B1DC02858
:10014000A30BBC280530A3000230A8000330A9008F
:1001500007150130E4004530E5000130810026211B
:1001600007110130E4004530E5000130810026210F
:10017000A90BA828A80BA628063081000B11ED2892
:100180000621A40A0618C1280621A501A601A70177
:100190006430A402031CCE28A70AC8286430A40730
:1001A0000A30A402031CD628A60AD0280A30A407C5
:1001B0002408A5008316860983123030A507A607F8
:1001C000A7074D305E2127086021260860212508F9
:1001D00060218316860983128B107508E00076086B
:1001E000E1007708E2007808E3007808E4007A0884
:1001F000E5007B08E6007C08E7007D08E80072085F
:100200008A00710E8300F00E700E09000330E400C6
:100210002F30E50019309900262108000630E10052
:10022000B530E2001B2108000000000000000000C3
:10023000E00B142908006208E30000000000000041
:100240000000E30B1D29E10B1B2908006608E700ED
:100250006508E8000000000000000000E80B2A2903
:10026000E70B2829E40B262908003D30E100E8309F
:10027000E2001B21762176217621023086007F2143
:10028000462148214A214C214E21080028306C2962
:1002900008306C2901306C2906306C290C306C292F
:1002A0000E306C290F306C2902306C291C306C29FF
:1002B00018306C2914306C2910306C2980386C2966
:1002C000AA002A0E0F39860006167F212A080F3948
:1002D000860006167F210800AA002A0E0F39860024
:1002E0007F212A080F3986007F210800033086000D
:1002F0007F210430E1009C30E2001B2108008616BB
:100300000000000000000000000086122330E10021
:100310000830E2001B210800A001200830206021E5
:10032000A00A10302006031D8D290800A001200816
:1003300041206021A00A10302006031D97290800E3
:02400E00E423A9
:02401000FF3F70
:00000001FF
