:020000040000FA
:1000000001288316031788018901031383168501CC
:100010008601870188018901831203138501860106
:100020008701880189010313831601308900880143
:100030008312091C1928242009181C282420F030B8
:1000400088002C20880E21280330E4002F30E500A2
:100050001930E60044200800F330E1007530E2007A
:10006000392008000000000000000000E00B3228EA
:1000700008006208E3000000000000000000E30B3D
:100080003B28E10B392808006608E7006508E8000E
:100090000000000000000000E80B4828E70B46289D
:0600A000E40B44280800F7
:02400E00E423A9
:02401000FF3F70
:00000001FF
