:020000040000FA
:1000000001288316031788018901031383168501CC
:100010008601870188018901831203138501860106
:1000200087018801890103138316831283138630A5
:10003000840080014F30E4000330E500FD30FD0016
:1000400037200630840080091A28000000000000D4
:100050000000E00B252808006208E3000000000013
:1000600000000000E30B2E28E10B2C280800660896
:10007000E7006508E8000000000000000000E80B51
:0C0080003B28E70B3928E40B3728080068
:02400E00E423A9
:02401000FF3F70
:00000001FF
