:020000040000FA
:020000001F28B7
:08000800F000030EF10083017A
:100010000A08F2006008F5006108F6006108F600C1
:100020006208F7006308F8006408F9006508FA0040
:100030006608FB006708FC006808FD005728831667
:10004000031788018901031383168501860187013F
:1000500088018901831203138501860187018801C4
:10006000890103138316860101138B100B168B175E
:100070008312E72000301021A0012008A5201221C2
:10008000A00A10302006031D3D28403010211030FA
:10009000A0002008A5201221A00A20302006031D60
:1000A0004928831686098312A10A54288312061848
:1000B00057289E20061C5A289E20A501A601A701AC
:1000C0006430A102031C6628A70A60286430A107D7
:1000D0000A30A102031C6E28A60A68280A30A1076C
:1000E0002108A5008316860983123030A507A607CC
:1000F000A7074D30102127081221260812212508B4
:1001000012218316860983128B107508E000760889
:10011000E1007708E2007808E3007808E4007A0854
:10012000E5007B08E6007C08E7007D08E80072082F
:100130008A00710E8300F00E700E09000330E40097
:100140002F30E50019309900D820820745344C340F
:1001500020344E3455344D34453452344F342034E9
:1001600020342034203420342034203441344C34A2
:100170004534413454344F34523449344F342034AC
:10018000453453343A342034203420340000000005
:1001900000000000E00BC62808006208E300000031
:1001A000000000000000E30BCF28E10BCD28080081
:1001B0006608E7006508E800000000000000000095
:1001C000E80BDC28E70BDA28E40BD82808003D30E0
:1001D000E100E830E200CD2028212821282102304A
:1001E00086003121F820FA20FC20FE2000210800A2
:1001F00028301E2908301E2901301E2906301E29EC
:100200000C301E290E301E290F301E2902301E29E7
:100210001C301E2918301E2914301E2910301E29AA
:1002200080381E29AA002A0E0F39860006163121B1
:100230002A080F398600061631210800AA002A0E66
:100240000F39860031212A080F3986003121080034
:100250000330860031210430E1009C30E200CD20E3
:100260000800861600000000000000000000861252
:0C0270002330E1000830E200CD2008003F
:02400E00E423A9
:02401000FF3F70
:00000001FF
