:020000040000FA
:1000000001288316031788018901031383168501CC
:100010008601870188018901831203138501860106
:100020008701880189010313831688010510831253
:100030000514A0012008282088000330E400EA30DD
:10004000E500CB30CB004A20A00A0F30A0051A28CB
:1000500082073F3406345B344F3466347D340734D2
:100060007F346F3477347C3439345E34793471348E
:100070000000000000000000E00B382808006208C3
:10008000E3000000000000000000E30B4128E10B4A
:100090003F2808006608E7006508E8000000000047
:1000A00000000000E80B4E28E70B4C28E40B4A2820
:0200B000080046
:02400E00E423A9
:02401000FF3F70
:00000001FF
