:020000040000FA
:020000002F28A7
:08000800F000030EF10083017A
:100010000A08F2006008F5006108F6006108F600C1
:100020006208F7006308F8006408F9006508FA0040
:100030006608FB006708FC006808FD007D28820751
:100040003F3406345B344F3466347D3407347F34B8
:100050006F3477347C3439345E34793471348316B8
:10006000031788018901031383168501860187011F
:1000700088018901831203138501860187018801A4
:10008000890103138316F03086008801051085105E
:10009000FF30950081139609FA30920083121214F2
:1000A0009715171595013C3095008C1012158C1C76
:1000B000572883160711031706080B108B158B178B
:1000C000A101A0013C30A20020081F2088000514D7
:1000D000DC20051021081F2088008514DC208510F5
:1000E000A20B6428A00A09302006031D6228A10A79
:1000F00009302106031D61286028D420F030060550
:10010000AE0083120F3086008113831286010F30F8
:100110000605AE07AF012F08E2202E060319972827
:10012000AF0A10302F06031D8B281030AF002F08A8
:10013000052195000F300606031D9A28D42083164A
:10014000F03086008113831206080B107508E0005A
:100150007608E1007708E2007808E3007808E40018
:100160007A08E5007B08E6007C08E7007D08E800E7
:1001700072088A00710E8300F00E700E0900A5014E
:10018000A601A7016430B002031CC828A70AC22830
:100190006430B0070A30B002031CD028A60ACA286F
:1001A0000A30B0073008A5000330E4002F30E50026
:1001B00019309900292108000630E100B530E2002D
:1001C0001E2108008207EE34DE34BE347E34ED3466
:1001D000DD34BD347D34EB34DB34BB347B34E73485
:1001E000D734B7347734820730343134323433344F
:1001F0003434353436343734383439344134423495
:100200004334443445344634403482070034103497
:10021000203430344034503460347034803490347E
:10022000A034B034C034D034E034F034FF340000B3
:10023000000000000000E00B172908006208E3003E
:100240000000000000000000E30B2029E10B1E2944
:1002500008006608E7006508E800000000000000EC
:100260000000E80B2D29E70B2B29E40B29290800B6
:02400E00E423A9
:02401000FF3F70
:00000001FF
