:020000040000FA
:02000000522884
:08000800F000030EF10083017A
:100010000A08F2006008F5006108F6006108F600C1
:100020006208F7006308F8006408F9006508FA0040
:100030006608FB006708FC006808FD00AD28820721
:100040003F3406345B344F3466347D3407347F34B8
:100050006F3477347C3439345E34793471348207C8
:1000600082072034203420342034563469343A3422
:1000700020342034203420342034203420346D3493
:10008000563482075434453443344C34413420349C
:1000900020342034203420342034203420342034C0
:1000A0002034203483160317880189010313831633
:1000B0008501860187018801890183120313850167
:1000C000860187018801890103138316F0308600B9
:1000D0008701880105108510FF30950083160317EE
:1000E000883088000313831610309F008312DD30A0
:1000F0009F00AB210030D42102224030D4210C22B9
:1001000083165530810096098312A801833081003F
:100110003E30A30006080B118B160B108B158B17A6
:10012000A101A0013C30A20020081F208800051476
:100130006121051021081F20880085146121851088
:10014000A20B9428A00A09302006031D9228A10AB8
:1001500009302106031D912890280B1DF228A30BBE
:10016000EE289F143E30A300A80A2808B0003821CA
:100170000030D42152219F18BB281E08B00038211E
:100180000730D421522183161E088312B1000301C7
:100190003106031DD2283030D6212E30D621303002
:1001A000D621EE2840303106031DDD283230D6211D
:1001B0002E30D6213530D621EE2880303106031D71
:1001C000E8283530D6212E30D6213030D621EE2801
:1001D0003730D6212E30D6213530D62183308100DC
:1001E0000B111F2985015921F0300605AE0083123D
:1001F0000F3086008113831286010F300605AE078B
:10020000AF012F0867212E0603190E29AF0A1030FF
:100210002F06031D01291030AF0059214E30D42183
:100220002F087821D6210F300606031D13295921E6
:100230008316F03086008113831206080B107508B0
:10024000E0007608E1007708E2007808E30078082B
:10025000E4007A08E5007B08E6007C08E7007D08FA
:10026000E80072088A00710E8300F00E700E09001B
:10027000A501A601A7016430B002031C4129A70A09
:100280003B296430B0070A30B002031C4929A60A92
:1002900043290A30B0073008A5003030A507A6076B
:1002A000A70708002708D6212608D6212508D62129
:1002B00008000330E4002F30E500193099009C213C
:1002C00008000630E100B530E20091210800820705
:1002D000EE34DE34BE347E34ED34DD34BD347D3472
:1002E000EB34DB34BB347B34E734D734B734773486
:1002F00082073034313432343334343435343634A4
:100300003734383439344134423443344434453456
:10031000463440340000000000000000E00B8A2951
:1003200008006208E3000000000000000000E30B8A
:100330009329E10B912908006608E7006508E800A9
:100340000000000000000000E80BA029E70B9E2938
:10035000E40B9C2908003D30E100E830E2009121E7
:10036000EC21EC21EC2102308700F521BC21BE21DB
:10037000C021C221C42108002830E2290830E22926
:100380000130E2290630E2290C30E2290E30E22960
:100390000F30E2290230E2291C30E2291830E2292C
:1003A0001430E2291030E2298038E229AA002A0E0E
:1003B0000F3987000716F5212A080F39870007161D
:1003C000F5210800AA002A0E0F398700F5212A0816
:1003D0000F398700F521080003308700F52104302C
:1003E000E1009C30E2009121080087160000000027
:1003F00000000000000087122330E1000830E20016
:1004000091210800A00120083020D621A00A103038
:100410002006031D032A0800A00120084120D62140
:0C042000A00A10302006031D0D2A080061
:02400E00E423A9
:02401000FF3F70
:00000001FF
