:020000040000FA
:020000001F28B7
:08000800F000030EF10083017A
:100010000A08F2006008F5006108F6006108F600C1
:100020006208F7006308F8006408F9006508FA0040
:100030006608FB006708FC006808FD003F2883167F
:10004000031788018901031383168501860187013F
:1000500088018901831203138501860187018801C4
:100060008901031383160711F030810083120630D3
:1000700081000530A3008B160B118B173E280B1D3A
:100080006128A30B5D280530A3000230A8000330CF
:10009000A90007150130E4004530E500013081007A
:1000A0008C2007110130E4004530E500013081006B
:1000B0008C20A90B4928A80B4728063081000B117A
:1000C00061287508E0007608E1007708E20078080A
:1000D000E3007808E4007A08E5007B08E6007C0885
:1000E000E7007D08E80072088A00710E8300F00EB8
:1000F000700E09000000000000000000E00B7A28EC
:1001000008006208E3000000000000000000E30BAC
:100110008328E10B812808006608E7006508E800ED
:100120000000000000000000E80B9028E70B8E287C
:10013000E40B8C2808003D30E100E830E20081202B
:10014000DC20DC20DC2002308600E520AC20AE2064
:10015000B020B220B42008002830D2280830D2289D
:100160000130D2280630D2280C30D2280E30D228C6
:100170000F30D2280230D2281C30D2281830D22892
:100180001430D2281030D2288038D228AA002A0E63
:100190000F3986000616E5202A080F398600061654
:1001A000E5200800AA002A0E0F398600E5202A085B
:1001B0000F398600E520080003308600E520043072
:1001C000E1009C30E200812008008616000000005B
:1001D00000000000000086122330E1000830E20039
:0401E0008120080072
:02400E00E423A9
:02401000FF3F70
:00000001FF
