:020000040000FA
:02000000522884
:08000800F000030EF10083017A
:100010000A08F2006008F5006108F6006108F600C1
:100020006208F7006308F8006408F9006508FA0040
:100030006608FB006708FC006808FD00A12882072D
:100040003F3406345B344F3466347D3407347F34B8
:100050006F3477347C3439345E34793471348207C8
:10006000820743344F344E345434413444344F3493
:1000700052343A3420342034203420342034203494
:10008000203482075434453443344C3441342034D2
:1000900020342034203420342034203420342034C0
:1000A0002034203483160317880189010313831633
:1000B0008501860187018801890183120313850167
:1000C000860187018801890103138316F0308600B9
:1000D000870188010510851083126B21003094215F
:1000E000C22140309421CC218316553081009609DD
:1000F0008312A801833081003E30A30006080B1153
:100100008B160B108B158B17A101A0013C30A200A0
:1001100020081F20880005142121051021081F2018
:100120008800851421218510A20B8828A00A093097
:100130002006031D8628A10A09302106031D8528F3
:1001400084280B1DB228A30BAE283E30A300A80ABA
:100150002808B000F8200D3094211221833081004E
:100160000B11DF2885011921F0300605AE0083123E
:100170000F3086008113831286010F300605AE070B
:10018000AF012F0827212E060319CE28AF0A103001
:100190002F06031DC1281030AF0019214E309421C5
:1001A0002F08382196210F300606031DD328192168
:1001B0008316F03086008113831206080B10750831
:1001C000E0007608E1007708E2007808E3007808AC
:1001D000E4007A08E5007B08E6007C08E7007D087B
:1001E000E80072088A00710E8300F00E700E09009C
:1001F000A501A601A7016430B002031C0129A70ACA
:10020000FB286430B0070A30B002031C0929A60A93
:1002100003290A30B0073008A5003030A507A6072B
:10022000A707080027089621260896212508962169
:1002300008000330E4002F30E500193099005C21FC
:1002400008000630E100B530E200512108008207C5
:10025000EE34DE34BE347E34ED34DD34BD347D34F2
:10026000EB34DB34BB347B34E734D734B734773406
:100270008207303431343234333434343534363424
:1002800037343834393441344234433444344534D7
:10029000463440340000000000000000E00B4A2912
:1002A00008006208E3000000000000000000E30B0B
:1002B0005329E10B512908006608E7006508E800AA
:1002C0000000000000000000E80B6029E70B5E2939
:1002D000E40B5C2908003D30E100E830E2005121E8
:1002E000AC21AC21AC2102308700B5217C217E21DC
:1002F00080218221842108002830A2290830A229E7
:100300000130A2290630A2290C30A2290E30A229E0
:100310000F30A2290230A2291C30A2291830A229AC
:100320001430A2291030A2298038A229AA002A0E4E
:100330000F3987000716B5212A080F3987000716DD
:10034000B5210800AA002A0E0F398700B5212A0816
:100350000F398700B521080003308700B52104302C
:10036000E1009C30E20051210800871600000000E7
:1003700000000000000087122330E1000830E20096
:1003800051210800A001200830209621A00A103039
:100390002006031DC3290800A00120084120962142
:0C03A000A00A10302006031DCD29080023
:02400E00E423A9
:02401000FF3F70
:00000001FF
